:020000040800F2
:10000000780A002001010008373300086D27000836
:100010003533000899080008893A000800000000FC
:100020000000000000000000000000007937000818
:10003000BD08000800000000393300087B370008C5
:100040001B0100081B0100081B0100081B01000820
:100050001B0100081B010008BF0800081B01000865
:100060001B0100081B0100081B0100081B01000800
:100070001B0100081B0100081B0100081B010008F0
:100080001B0100081B0100081B0100081B010008E0
:100090001B0100081B0100081B0100081B010008D0
:1000A0001B0100081B0100081B0100081B010008C0
:1000B0001B010008C53700081B0100081B010008D0
:1000C0001B0100081B0100081B0100081B010008A0
:1000D0001B0100087D3A00081B0100081B010008F5
:1000E0001B0100081B0100081B010008DFF80CD0F1
:1000F00000F0C0FB0048004731440008780A0020A7
:100100000648804706480047FEE7FEE7FEE7FEE7B1
:10011000FEE7FEE7FEE7FEE7FEE7FEE7C137000881
:10012000ED000008202A04DB203A21FA02F0002129
:10013000704721FA02F3D040C2F1200291400843F7
:1001400019467047D2B201E000F8012B491EFBD2DC
:1001500070470022F6E710B513460A4604461946D2
:10016000FFF7F0FF204610BDF0B480EA0102D40F83
:100170004200B2EB410F02D20246084611464A0045
:1001800042D0C30DDDB2C1F3C752AD1A202D35DA0E
:10019000C1F3160141F4000204B15242C5F1200638
:1001A00002FA06F12A411044B3EBD05F23D0C4B168
:1001B000012DA0EBC35009DCF0BC4FF0004202EA75
:1001C000C352DBB200F5000000F02ABA400000F193
:1001D000807000EBC350A0F1807040EAD1704900FC
:1001E00009E0490841EAC071A0EBC35000F50000E6
:1001F000400800EBC350F0BC00F009BA6142012294
:1002000002EB4101001BF6E7F0BC704781F00041B2
:10021000AAE780F00040A7E730B480EA010202F0CC
:10022000004530F0004221F0004013D090B1C30DE2
:10023000D40DC2F31601C0F31600E41A41F4000114
:1002400040F400027D34914201D3641C00E0490077
:10025000002C02DA30BC002070474FF4000000236D
:10026000914201D3891A034340084FEA4101F7D173
:1002700051B1914202D14FF0004105E002D24FF05E
:10028000010101E06FF0010103EBC450284430BCD0
:1002900000F0BDB92DE9FE4F804681EA0300C00F92
:1002A0000C46009021F0004123F00045B8EB02001D
:1002B000A94105D24046214690461C460B460246BF
:1002C00023F00040104347D0270DC7F30A00C3F3C3
:1002D0000A510290401A019040286BDAC3F31300D0
:1002E00040F4801B0098924620B10023D2EB030A11
:1002F00063EB0B0B01985946C0F14002504600F0E9
:1003000065F906460D4650465946019A00F06DF9CA
:1003100010EB08006141002487EA115284EAE77378
:100320001A4340D0009A62B3019A012A4FEA075259
:1003300015DC001B61EB02014FF0004202EA07529C
:10034000CDE90042001C41F5801132462B4600F0F9
:10035000A4F903B0BDE8F08F40462146F9E7001B41
:1003600061EB0201001C41F5801300185B4120186D
:10037000A2F5001747EB030140EAD570B6196D41AD
:1003800011E06D084FEA360645EAC0754FEA07529C
:10039000001B61EB0201001C41F5801149084FEA86
:1003A00030000019514132462B4603B0BDE8F04FF2
:1003B00000F064B90098012240000023D0EB020253
:1003C00063EBE073009821464FEAE074B8EB00005D
:1003D00061EB0401E9E783F000435BE781F0004152
:1003E00058E72DE9FE4F81EA030404F0004421F0B0
:1003F000004100944FF0000B23F0004350EA010449
:100400005ED052EA03045BD0C3F30A54C1F30A5529
:100410002C44A4F2F3340194A0FB0254C1F3130161
:1004200041F48011C3F3130343F4801301FB02442E
:1004300000FB034E840A970A44EA815447EA835733
:10044000A4FB076802958D0A05FB07854FEA932CEC
:1004500004FB0C542705029D4FEA065847EA16375D
:10046000B5EB08056EEB070C870E920E47EA811775
:1004700042EA8312A7FB0201B6EB0B0164EB000416
:100480002B0D43EA0C335E1844EB1C50DA46514600
:10049000E7FB0201C5F313044FEA0B3343EA14539D
:1004A0004FEA0432019C43EA0603A4F10C040294CF
:1004B000009CCDE900B400F0F0F803B0BDE8F08F87
:1004C00000200146F9E70EB540F2334102910021C8
:1004D000CDE900110A460B4600F0DFF803B000BD7D
:1004E00000F0004230F000400AD0C10D01F560710B
:1004F000C0F3160042EA0151C20840071143704799
:1005000000200146704701F0004330B421F0004163
:1005100050EA010206D00A0DA2F56072C1F3130180
:10052000002A02DC30BC00207047440F44EAC104BA
:10053000C100E01830BC00EBC25000F068B830B524
:100540000B46014600202022012409E021FA02F591
:100550009D4205D303FA02F5491B04FA02F528442B
:10056000151EA2F10102F1DC30BD2DE9F05F054658
:10057000002092469B4688460646814640241BE062
:100580002846414647462246FFF7CCFD53465A4689
:10059000C01A914110D311461846224600F016F8B1
:1005A0002D1A67EB01084F4622460120002100F07A
:1005B0000DF817EB00094E41201EA4F10104DFDC09
:1005C000484631462A464346BDE8F09F202A04DBD0
:1005D000203A00FA02F1002070479140C2F1200356
:1005E00020FA03F3194390407047202A06DBCB170B
:1005F000203A41FA02F043EAE07306E041FA02F3DE
:10060000D040C2F1200291400843194670470029AA
:10061000A8BF7047401C490008BF20F00100704788
:1006200010B4B0FA80FC00FA0CF050EA010404BFE8
:1006300010BC704749B1CCF1200421FA04F411FA3E
:100640000CF118BF012121430843A3EB0C01CB1D82
:100650004FEA00614FEA102042BF002010BC7047F3
:1006600000EBC35010440029A4BF10BC7047401CCD
:10067000490008BF20F0010010BC704710B5141EDF
:1006800073F1000408DA401C41F1000192185B414B
:100690001A4301D120F0010010BD2DE9F04D924622
:1006A0009B4611B1B1FA81F202E0B0FA80F2203239
:1006B0009046FFF78BFF04460F4640EA0A0041EAE6
:1006C0000B0153465A46084313D0114653EA010022
:1006D00019D0C8F140025046FFF724FD05460E46EA
:1006E000504659464246FFF771FF084305D00120A6
:1006F00004E020463946BDE8F08D0020054346EA77
:10070000E0762C4337430A986305E40AA0EB08001F
:100710000022FD0A44EA47540A3002D5002001466F
:10072000E9E7010510196941DDE90845001969414A
:10073000BDE8F04DA2E72DE9F04D81EA030404F095
:10074000004B21F0004514464FF0000A23F0004111
:1007500050EA050220D054EA01021DD0C5F30A5721
:100760000246C5F31303C1F31300C1F30A5640F464
:10077000801543F48013A7EB0608101BD64608F239
:10078000FD3873EB050002D308F1010801E092186F
:100790005B41B8F1000F03DA00200146BDE8F08D9F
:1007A00000204FF48011064684460EE0171B73EBC1
:1007B000050705D3121B63EB050306434CEA010C46
:1007C00049084FEA300092185B4150EA0107EDD129
:1007D00052EA030012D082EA040083EA05010843CA
:1007E00005D0101BAB4106D20122002306E00022F7
:1007F0004FF0004302E06FF0010253101AEB0600C5
:100800004CEB085110EB0A0041EB0B01BDE8F04D39
:10081000FFF734BFC1F30A52C1F3130140F2FF33B3
:1008200041F480119A4202DA00200146704740F2FA
:1008300033439A42A2F2334202DC5242FFF772BCC7
:10084000FFF7C4BE30B5041E71F1000404DB4FF0A5
:100850000044404264EB0101141E73F1000405DB07
:100860001C464FF00043524263EB0403994208BF19
:10087000904230BD064C074D06E0E06840F00103B1
:1008800094E8070098471034AC42F6D3FFF732FCE7
:100890000459000824590008FEE7000010B502467C
:1008A0000020054C04E000BF12F8013B4340E05C2F
:1008B000491EC9B2F8D210BD9C57000870470120EC
:1008C00000F060B810B590F821100024022903D080
:1008D0000421816301243DE001680A6822F00E02D0
:1008E0000A6001680A6822F001020A601A4A016877
:1008F000914201D1012121E0174A1432914201D1E4
:1009000010211BE0144A2832914201D1891515E0CB
:10091000114A3C32914201D189140FE00E4A503203
:10092000914202D14FF4803108E00B4A6432914287
:1009300002D14FF4801101E04FF08071064A083A6D
:100940005160012180F82110002180F82010416BB6
:1009500001B18847204610BD0800024070B504462A
:1009600000F016F90546601C02D0044800780444E3
:1009700000F00EF9401BA042FAD370BD58000020D1
:1009800070470000044910B50A68024202D00860AE
:10099000FFF7F6FF10BD0000140401402DE9F84FE9
:1009A000DFF8B891002409F1040A0AF1040B234688
:1009B0000F270BF1040EC9E00125A5402A40AA42E9
:1009C0007DD1674ED1F804C0ACEB0608B44532D0F7
:1009D00014DCBCF1030F3AD009DCBCF1000F2AD0C3
:1009E000BCF1010F1CD0BCF1020F31D11DE0BCF1F4
:1009F000110F17D0BCF1120F2AD119E0B8F5881FDA
:100A000019D006DCB8F5803F15D0B8F5801F1FD18E
:100A100011E0B8F5001F0ED0B8F5041F18D10AE098
:100A2000CB6815E0CB681B1D12E0CB6808330FE0E4
:100A3000CB680C330CE08B682BB1012B4FF0080313
:100A400003D0456104E0042302E0056100E00023D7
:100A5000FF2A01D8064601E000F104064FEA8405AA
:100A600001D9A5F12005D6F8008007FA05FC28EA8F
:100A70000C0803FA05F548EA0508C6F800804D6839
:100A8000ED0062D5374DAE6946F00106AE61AD6945
:100A900024F0030605F001050095334D06EB050C27
:100AA000DCF80850A607360F07FA06F825EA08050D
:100AB000DFF8B880404503D14FF0000817E044E06C
:100AC000DFF8AC80404502D14FF001080FE0DFF8BD
:100AD000A480404502D14FF0020808E0DFF898807A
:100AE000404502D14FF0030801E04FF0040808FA36
:100AF00006F848EA0508CCF808804D68D9F8006087
:100B0000ED034D4601D5164300E096432E604D6837
:100B1000DAF80060AD03554601D5164300E0964370
:100B20002E604D68DBF80060ED025D4601D516438E
:100B300000E096432E604D68DEF80060AD02754619
:100B400001D5164300E096432E60641C0D682A46CA
:100B5000E5407FF431AFBDE8F88F000000040140AC
:100B60000000111000100240000001400008014088
:100B7000000C014000100140001401408068084052
:100B800000D0012070470AB1016170470904FBE7FA
:100B900001488068704700005800002070B50400CC
:100BA00025D094F83D00002520B984F83C5020461B
:100BB00000F04EFC242084F83D002068016821F0FC
:100BC000010101602068016841F400410160206872
:100BD000016821F40041016000F0B4FD4D4A6168F4
:100BE000914201D84C4900E04C49884201D2012091
:100BF00070BD4B492368B0FBF1F15E6826F03F06FB
:100C00000E435E606368934206D94FF4967359436E
:100C10004FF47A73B1FBF3F12368491C1E6A26F086
:100C20003F06314319626168914210D84900401E65
:100C3000B0FBF1F2521CC2F30B02042A01D20420D1
:100C400022E0B0FBF1F0401CC0F30B001CE0A268F6
:100C5000F2B301EBC10303EB0116431EB3FBF6F342
:100C60005B1C43F480431B0549D092B301EBC102E6
:100C700002EB0111401EB0FBF1F0401CC0F30B0071
:100C800040F4804040F400402168CA694CF6FF738C
:100C90009A431043C861D4E90710014320680268F1
:100CA00022F0C00211430160D4E90301014320682E
:100CB000826848F2FF339A4311438160D4E9050109
:100CC00008432168CA6822F0FF021043C86001E0AF
:100CD0000EE016E02068016841F001010160256422
:100CE000202084F83D00256384F83E50002070BD2C
:100CF00001EB4106431EB3FBF6F35B1CB3E7012097
:100D0000C2E701EB4101401EB0FBF1F0401CC0F313
:100D10000B00B7E7A086010080841E0000093D009B
:100D200040420F002DE9FF4F81B089460446FFF78E
:100D30002FFF054694F83D004FF0010820287DD193
:100D40001923012250492046009501F08FFE00280A
:100D500074D194F83C00012870D0012084F83C0044
:100D600020680168C90703D1016841F001010160F1
:100D70002068016821F400610160242084F83D00AE
:100D8000002626644148E0624FF0011B20272068BE
:100D9000016841F4807101600095002259462046A7
:100DA000049B01F063FE50B120680068C00502D5C5
:100DB0004FF400702064032005B0BDE8F08F216877
:100DC00009F0FE000861FFF7E3FE21680546486967
:100DD0004969C0F34000C1F380214FF0A00A0FE041
:100DE000FFF7D6FE411B0498814200D808B984F869
:100DF0003DA0216848694969C0F34000C1F38021E2
:100E000094F83D20A02A02D008B90029E8D084F83F
:100E10003D7020684169C943890716D4016841F4CF
:100E20000071016020684169806919230122164917
:100E30002046009501F01AFEB8B900E021E084F8E0
:100E40003D7084F83C600020B6E7016841F4007111
:100E5000016021686FF480604861192301220A490A
:100E60002046009501F002FE08B10120A4E7039896
:100E700008F1010880458AD384F83D7084F83C600D
:100E8000F3E7022098E70000020010000000FFFFD7
:100E90002DE9F84F0025DDF82890984617468A4638
:100EA00004460095FFF774FE064694F83D0020289E
:100EB0007AD11923012283492046009601F0D6FDFC
:100EC0000028F5D194F83C0001286DD0012084F869
:100ED0003C0020680168C90703D1016841F00101A5
:100EE00001602068016821F400610160222084F81B
:100EF0003D00102084F83E0025646762A4F82A8033
:100F0000608D20857048E06233464A46514620464F
:100F100001F044FC00287DD1208DDFF8B08120272E
:100F200068B1012814D00228206801681ED041F45D
:100F3000806101602068416980690090B5E02068A7
:100F4000416981690091016841F400710160ACE080
:100F50002068016821F48061016072B620684169EF
:100F600081690091016841F400710AE041F4006177
:100F7000016072B62068416981690091016821F4BD
:100F80008061016062B690E0032868D801280CD027
:100F900002284B464FF000024146204600960FD0F3
:100FA00001F064FDB0BB10E08AE0324649462046BD
:100FB00001F0DBFD70BB20680069616A08706BE0BE
:100FC00001F054FD30BB72B634E02068016821F4B2
:100FD0008061016072B620680069616A0870606AA9
:100FE000401C6062208D401E2085608D401E608503
:100FF000374846F2A8110068B0FBF1F0C0EBC00022
:1010000000EB80000090401E009008D020684069EE
:10101000C04300E029E040070CD50098F3E744F80E
:10102000305F6773A573206940F02000206162B6CD
:1010300025731AE02068016841F40071016020689E
:101040000069616A0870606A401C6062218D491EF7
:101050002185618D491E618562B621681AE032469C
:101060004946204601F081FD10B10120BDE8F88F0E
:1010700020680069616A0870606A401C6062218DA6
:10108000491E2185618D491E618521684A69D243C7
:1010900052070AD409690170606A401C6062208DA1
:1010A000401E2085608D401E6085208D00287FF4C5
:1010B0006BAF84F83D7084F83E5084F83C50D5E71F
:1010C0000220D3E7020010000000FFFF040001002F
:1010D000640000202DE9F84F1F4690468A460446DA
:1010E000DDF82890FFF754FD054694F83D002028D0
:1010F0007FD11923012240492046009501F0B6FC1A
:10110000002876D194F83C00012872D0012084F8A0
:101110003C0020680168C90703D1016841F0010162
:1011200001602068016821F400610160212084F8D9
:101130003D00102084F83E0000262664C4F8248078
:101140006785608D20852D48E0622B464A465146D2
:10115000204601F099FB90B92068416980690090B0
:1011600036E02A464946204601F032FD50B1206C57
:10117000042804D12068016841F400710160012055
:10118000BDE8F88F606A216800780861606A401CD9
:101190006062618D491E6185218D491E89B221855C
:1011A00022685369DB435B070BD451B100781061AF
:1011B000606A401C6062608D401E6085208D401E0C
:1011C00020852A464946204601F02AFC0028CED137
:1011D000208D0028C5D154F83D0B016841F4007101
:1011E0000160202004F81E09E67766770020C7E733
:1011F000FFE70220C4E70000020010000000FFFF2C
:101200002DE9FF4F83B00025DDE910799A4693461A
:101210000446DDF848800095FFF7BAFC064694F8CE
:101220003D0020287CD119230122854920460096C3
:1012300001F01CFC0028F5D194F83C0001286FD087
:10124000012084F83C0020680168C90703D10168C7
:1012500041F0010101602068016821F40061016032
:10126000222084F83D00402084F83E002564676217
:10127000A4F82A90608D20857248E062CDE900864E
:1012800053465A462046049901F04CFB00287DD174
:10129000208DDFF8B491202768B1012814D00228EE
:1012A000206801681ED041F48061016020684169B6
:1012B00080690090B6E02068416981690091016809
:1012C00041F400710160ADE02068016821F48061A3
:1012D000016072B62068416981690091016841F43A
:1012E00000710AE041F40061016072B62068416952
:1012F00081690091016821F48061016062B691E02A
:10130000032868D801280CD0022843464FF0000279
:101310004946204600960FD001F0A8FBB0BB10E074
:101320008BE032464146204601F01FFC70BB20682E
:101330000069616A08706CE001F098FB30BB72B61E
:1013400034E02068016821F48061016072B6206891
:101350000069616A0870606A401C6062208D401EEE
:101360002085608D401E6085384846F2A8110068CF
:10137000B0FBF1F0C0EBC00000EB80000090401E1D
:10138000009008D020684069C04300E029E0400791
:101390000CD50098F3E744F8305F6773A5732069B4
:1013A00040F02000206162B625731AE020680168D1
:1013B00041F40071016020680069616A0870606A28
:1013C000401C6062218D491E2185618D491E618509
:1013D00062B621681BE032464146204601F0C5FB5B
:1013E00018B1012007B0BDE8F08F20680069616A7C
:1013F0000870606A401C6062218D491E2185618DE4
:10140000491E618521684A69D24352070AD4096995
:101410000170606A401C6062208D401E2085608DD6
:10142000401E6085208D00287FF46AAF84F83D70EF
:1014300084F83E5084F83C50D4E70220D2E7000004
:10144000020010000000FFFF040001006400002003
:1014500030B585B0002100910191029103911E4D9C
:1014600003681E4C122103221D48AB4216D1A3690A
:1014700043F00803A361A369039203F008030493F4
:10148000C023CDE900316946FFF788FAE06940F4EE
:101490000010E061E06900F4001019E0114DAB426A
:1014A00017D1A36943F00803A361A369039203F072
:1014B000080304934FF44063CDE900316946FFF718
:1014C0006DFAE06940F48000E061E06900F48000BA
:1014D000049005B030BD00000054004000100240F0
:1014E000000C014000580040024881680278114415
:1014F0008160704758000020074810B5016841F02E
:1015000010010160032000F075F8002000F006F8DB
:1015100000F024F8002010BD0020024070B50D4DF1
:1015200004464FF47A712878B1FBF0F00A49096853
:10153000B1FBF0F000F06FFC48B9102C07D200228C
:101540002146501E00F036F800206C6070BD01206E
:1015500070BD000058000020640000200C4808B551
:10156000816941F001018161816901F0010100910E
:10157000C16941F08051C161C06900F080500090A4
:101580000448416821F0E06141F00071416008BD0C
:101590000010024000000140002809DB00F01F029B
:1015A000012191404009800000F1E020C0F80011C5
:1015B00070470000F0B40E4B1B680C46C3F30223C7
:1015C000C3F10705042D00D90425191D072901D2EF
:1015D000002300E0DB1E012606FA05F1491E21402A
:1015E00099409E40761E16403143F0BC02F08ABA04
:1015F0000CED00E0064900F0070208684FF6FF0313
:10160000184040EA0220034A104308607047000077
:101610000CED00E00000FA052DE9F0470F4605004B
:1016200061D0434E306800F00700B84209D23068FC
:1016300020F0070038433060306800F00700B842FF
:1016400051D128683B4C810712D5400703D560680B
:1016500040F4E06060602878000703D5606840F4DB
:10166000605060606068A96820F0F0000843606026
:101670002878C00728D06868012810D0216802287F
:1016800010D0890700292EDA616821F00301014397
:101690006160FFF77DFA804641F288390DE02168EC
:1016A0008903EFE78901EDE7FFF772FAA0EB080184
:1016B000494502D90320BDE8F0876068696800F0F9
:1016C0000C00B0EB810FEFD1306800F00700B8429A
:1016D0000BD9306820F0070038433060306800F0E4
:1016E0000700B84201D00120E5E72878400705D57A
:1016F0006068E96820F4E0600843606028780007CB
:1017000006D56068296920F4605040EAC100606035
:1017100000F038F86168084AC1F30311515CC84011
:101720000649086006480068FFF7F8FE0020C2E797
:1017300000200240001002409C5800086400002075
:101740005C0000200448054900684968044AC1F368
:101750000221515CC8407047640000200010024024
:10176000AC5800080448054900684968044AC1F3B8
:10177000C221515CC8407047640000200010024044
:10178000AC58000812A185B00FC98DE80F0014A055
:10179000144A006804905168134801F00C03042BAC
:1017A00010D0082B0ED1C1F38343C9031DF80300E9
:1017B0000AD5516804AAC1F34041515C0A4A50431A
:1017C000B0FBF1F005B0704708494843FAE7000064
:1017D00002030405060708090A0B0C0D0E0F101072
:1017E000010200000010024000127A0000093D00D2
:1017F0002DE9F84F040070D02078C04DC00749D0C3
:101800006868C0F38100012807D06868C0F38100D0
:10181000022809D16868C00306D52868800339D535
:1018200060680028E7D035E06068B0F5803F0BD0F5
:1018300010B1B0F5A02F11D0286820F480302860B6
:10184000286820F4802002E0286840F48030286076
:10185000606890B1FFF79CF906460AE0286840F4FA
:1018600080202860F0E700BFFFF792F9801B642812
:1018700073D828688003F7D50CE0FFF789F906468E
:1018800005E000BFFFF784F9801B6428F0D82868C2
:101890008003F7D420789A4E80074FF001094FF06B
:1018A000000839D5686810F00C0F07D06868C0F3DD
:1018B0008100022809D16868C00306D4286880071F
:1018C00014D52069012808D110E02069B0B1C6F80C
:1018D0000090FFF75DF9074605E00AE1FFF758F9C8
:1018E000C01B0228C4D828688007F7D5286861691A
:1018F00020F0F80040EAC10028600DE0C6F8008042
:10190000FFF746F9074604E0FFF742F9C01B02283B
:1019100023D828688007F7D4207800072CD5794889
:10192000A169D9B1C0F80090FFF732F9074604E089
:10193000FFF72EF9C01B02280FD8686A8007F7D579
:1019400071484FF4FA510068B0FBF1F0009000BF0D
:101950000098411E0091FAD20EE080E0C0F80080AD
:10196000FFF716F9074604E0FFF712F9C01B02283B
:1019700075D8686A8007F7D42078400760D5E86991
:101980000027C00008D4E86940F08050E861E869A9
:10199000012700F0805000905C480168C90513D40D
:1019A0000168834641F480710160FFF7F1F88246D7
:1019B00006E000BFFFF7ECF8A0EB0A0064284ED861
:1019C000DBF80000C005F5D5E06801280AD008B1B1
:1019D000052813D0286A20F001002862286A20F028
:1019E000040002E0286A40F001002862E06841F249
:1019F000883B98B1FFF7CCF882460BE0286A40F0AC
:101A000004002862EEE700BFFFF7C2F8A0EB0A016E
:101A100059455AD8286A8007F6D50CE0FFF7B8F880
:101A2000824605E0FFF7B4F8A0EB0A0159454CD80F
:101A3000286A8007F6D41FB1E86920F08050E86179
:101A4000E06988B36968C1F38101022944D00228A2
:101A5000C6F8608004D0FFF79BF8044638E034E015
:101A6000FFF796F8074604E0FFF792F8C01B02283C
:101A70002BD828688001F7D4206AB0F5803F05D1C3
:101A80006868A16820F4003008436860D4E9080160
:101A90000843696821F4741108436860C6F86090CF
:101AA000FFF776F8044606E025E000BFFFF770F880
:101AB000001B022809D828688001F7D51BE000BF69
:101AC000FFF766F8001B022802D90320BDE8F88F53
:101AD00028688001F4D40EE00128F7D06868226AF3
:101AE00000F48031914204D1616A00F470108842A0
:101AF00001D00120EAE70020E8E7000000100240E2
:101B00000000424280044242640000200070004015
:101B100070B5040009D0606A002540B12561656197
:101B2000A56294F8510040B10CE0012070BD6068DE
:101B3000B0F5827FF4D0E561F2E784F8505020469A
:101B400000F040F8022084F851002068016821F07C
:101B500040010160A088218900F4827001F40441F1
:101B60000843A18901F400610843217C01F00201CE
:101B70000843217D01F001010843218B01F400712C
:101B80000843217F01F03801084394F8201001F048
:101B900080010843218D01F4005108432168086049
:101BA000A069042101EA1040216848602068C169E9
:101BB00021F40061C1616565012084F851000020B5
:101BC00070BD000030B585B00024009401940294EB
:101BD000039400681449884223D11448816941F470
:101BE00080518161816901F480510491816941F0E2
:101BF0000401816180690E4D00F004000490A02072
:101C00000090022001900320039069462846FEF7C9
:101C1000C5FE4020CDE90004694628460294FEF73F
:101C2000BDFE05B030BD0000003001400010024094
:101C3000000801402DE9F84F044690F850000027B5
:101C40000A9E1D4692468B464FF0010901280ED090
:101C5000012084F85000FEF79BFF804694F8510065
:101C6000616801280CD0B1F5827F07D102E0022023
:101C7000BDE8F88FA16809B9042801D00227C2E0A5
:101C8000BBF1000F27D0BAF1000F24D01DB394F898
:101C90005100042802D0052084F85100002060651E
:101CA000C4F838A0E587A587C4F830B0E586A586D6
:101CB0002064606420680168490603D4016841F02B
:101CC00040010160E068B0F5006F606805D0E8B3DE
:101CD000012D46D07FE0012795E008B1012D39D1D3
:101CE000206B21680088C860206B801C2063E08E18
:101CF000401EE0862EE02068816889070FD5E18EBE
:101D000069B1B9F1010F0AD1216B0988C160206B5B
:101D1000801C2063E08E401EE0864FF000092068A2
:101D20008168C9070CD0E18F51B1C068A16B0880F0
:101D3000A06B801CA063E08F401EE0874FF001097C
:101D4000FEF726FFA0EB0800B04200E009E001D357
:101D5000701C50D1E08E0028CDD1E08F0028CAD170
:101D60003FE0206B216800780873206B401C2063E3
:101D7000E08E401EE0862EE02068816889070FD53E
:101D8000E18E69B1B9F1010F0AD1216B09780173B4
:101D9000206B401C2063E08E401EE0864FF000095F
:101DA00020688168C9070CD0E18F51B1C068A16B70
:101DB0000870A06B401CA063E08F401EE0874FF0CE
:101DC0000109FEF7E5FEA0EB0800B04202D3701C4B
:101DD00001D010E07EB1E08E0028CDD1E08F002848
:101DE000CAD142463146204601F0E8FA28B101271F
:101DF0002020606507E0032705E0A06818B9206887
:101E0000C16880680090012084F85100002084F8A7
:101E1000500038462CE710B5401EB0F1807F01D34A
:101E2000012010BD4FF0E02460610F21601701F028
:101E300069FE0020A06107202061002010BD7047CE
:101E40007047000070B590F83C20012A26D001248C
:101E500080F83C40022280F83D2003685A689D6863
:101E600022F070060A6832435A600D4B02689A42AB
:101E700008D0B2F1804F05D00A4B9A4202D00A4BEB
:101E80009A4204D1496825F080031943916080F893
:101E90003D40002180F83C10084670BD022070BD16
:101EA000002C0140000400400008004010B5040070
:101EB00003D094F83D0010B107E0012010BD0020D0
:101EC00084F83C00204600F01FF8022084F83D0012
:101ED000211D206801F07CFC012084F8460084F874
:101EE0003E0084F83F0084F8400084F8410084F804
:101EF000420084F8430084F8440084F8450084F8E4
:101F00003D00002010BD000008B500680B49884264
:101F100012D10B48C16941F00201C161C0690022C0
:101F200000F00200009011461D20FFF743FBBDE8C2
:101F300008401D20FFF730BB08BD00000004004032
:101F40000010024090F83D10012901D00120704797
:101F5000022180F83D100168CA6842F00102CA609F
:101F600000680B49884208D0B0F1804F05D009497C
:101F7000884202D00849884204D1816801F00701F3
:101F8000062903D0016841F001010160002070477B
:101F9000002C0140000400400008004070B50446D9
:101FA00090F83C00012817D0012584F83C5002200D
:101FB00084F83D002068826822F0770222F47F4294
:101FC00082600868502830D00DDC20284DD005DC18
:101FD00098B310283BD148E0022070BD302844D08F
:101FE000402834D139E0602828D0702806D0B0F5D8
:101FF000805F2CD0B0F5005F29D10AE0CB68D1E931
:102000000121206801F01AFC2068816841F0770105
:1020100009E0CB68D1E90121206801F00FFC2068BC
:10202000816841F48041816011E0CA684968206894
:1020300001F016FC5021206807E016E0CA684968E4
:10204000206801F01EFC6021206801F001FC84F88A
:102050003D50002084F83C0070BDCA684968206883
:1020600001F0FEFB40212068EFE7226801461046A0
:10207000EBE7704770B50446006801694FF0000552
:10208000C943890715D4C168C943890711D4E91E1A
:10209000016101202077206880698007204602D0F6
:1020A000FFF7E7FF04E000F098F8204600F096F80C
:1020B000257720680169C943490717D4C168C94316
:1020C000490713D46FF004010161022020772068D2
:1020D000806910F4407F204602D0FFF7CAFF04E079
:1020E00000F07BF8204600F079F825772068016938
:1020F000C943090716D4C168C943090712D46FF050
:1021000008010161042020772068C069800720460B
:1021100002D0FFF7AEFF04E000F05FF8204600F0C9
:102120005DF8257720680169C943C90617D4C168DD
:10213000C943C90613D46FF010010161082020774C
:102140002068C06910F4407F204602D0FFF791FF5D
:1021500004E000F042F8204600F040F825772068BF
:102160000169C943C90708D1C168C943C90704D176
:10217000891E0161204600F033F820680169C943D7
:10218000090609D4C168C943090605D46FF0800166
:1021900001612046FFF753FE20680169C9434906E3
:1021A00009D4C168C943490605D46FF040010161F3
:1021B000204600F0E1F820680169C94389060BD484
:1021C000C168C943890607D46FF020010161204628
:1021D000BDE87040FFF734BE70BD70477047000027
:1021E0002DE9F84358490068096888427ED1574C68
:1021F0000025A069401CA0610A2812D1E06880B9BE
:102200000721002000F07EFF6061FEF769F9F822E7
:10221000009202464C480B464DA1513001F05EFC45
:10222000A561E068012810D1A0690F38192809D8E4
:102230000721002000F066FF01466061E069FDF7BC
:1022400093FFE061A069292808D0E068022824D023
:10225000032822D0A169502921D027E04049E06914
:10226000FDF7DAFF3F49E06142184FF480218A42CE
:1022700002D24FF07E510BE03B4A02448A4202D226
:102280004FF0804104E0394A02448A4203D238497F
:10229000FDF76AFFE0610220E060A56106E0052825
:1022A00004D1E560A561E56101F0F4F8DFF8C480D0
:1022B0004FF4005631464046FEF760FC012700B956
:1022C000A770B146314646464046FEF757FC012806
:1022D0000AD1E078012807D1A078012804D1E5705F
:1022E000A570257101F0D6F8494600E02AE0304695
:1022F000FEF744FC01280AD1E07840B9A078012813
:1023000005D1E560E770E561A57001F0C3F84FF411
:10231000804841463046FEF731FC00B967714146BE
:102320003046FEF72BFC01280CD16079012809D139
:102330002571E560E570E561A570657101F0AAF8A9
:10234000A561A560BDE8F8830C0600202C000020E4
:1023500054454D503A252E32662563430000000057
:102360000000C8410000F4BD0000F8BD0000FCBD45
:1023700000004040001001407047704770B502688F
:1023800004461068D168536910F00F0F52D003F063
:10239000010501F490762E435FD0C20705D0CA052F
:1023A00003D5E26B42F00102E263420705D5DA078A
:1023B00003D0E26B42F00202E263820705D5DA073E
:1023C00003D0E26B42F00402E263020707D501F09A
:1023D00020022A4303D0E26B42F00802E263E26B80
:1023E000002A33D0800604D5880602D5204601F0A5
:1023F00070FA20684069E16BC0F38010090700D4CF
:1024000028B3204601F057FA2068416949061AD5D9
:10241000416921F040014161606BA0B12D494163E8
:10242000606BFEF74FFA002810D0606B416BBDE87F
:1024300070400847830610D58B060ED52046BDE8B0
:10244000704001F046BA2046FFF797FF70BD204666
:10245000FFF793FF0020E06370BD03062BD50B064A
:1024600029D594F839002128F6D1A068B0F5805F0D
:1024700001D12069B0B1206A411C21622168007835
:102480004860E08C401E0004000CE084E4D1206829
:10249000C16821F08001C1602068C16841F040013D
:1024A000C16070BD206A0088C0F308005060206AD7
:1024B000801C2062E5E74006F3D54806F1D5D168D7
:1024C000204621F04001D160202184F8391000F02D
:1024D0004CF970BDA738000870B5040004D094F81A
:1024E0003900002510B106E0012070BD84F8385095
:1024F000204600F023F8242084F839002068C168C1
:1025000021F40051C160204601F02AFA20680169D7
:1025100021F4904101612068416921F02A01416163
:102520002068C16841F40051C160E563202084F84F
:10253000390084F83A00002070BD000070B586B004
:10254000002400940194029403942B4E03682B49B9
:10255000022003222A4DB34229D18B6943F48043E0
:102560008B618B6903F4804304938B6943F004030C
:102570008B618969039201F0040104910102CDE9A4
:10258000001069462846FEF709FA2815CDE900042F
:10259000694628460294FEF701FA002211462520DA
:1025A000FFF708F82520FEF7F7FF06B070BD154EBF
:1025B000B342FAD1CB6943F40033CB61CB6903F466
:1025C000003304938B6943F004038B6189690392A0
:1025D00001F0040104910421CDE900106946284668
:1025E000FEF7DCF90820CDE900046946284602948C
:1025F000FEF7D4F9D9E7000000380140001002408E
:10260000000801400044004090F83A30202B22D1CD
:10261000F9B1F2B190F83830012B1CD0816282857B
:10262000C2850021C163222280F83A2080F8381048
:102630000168CA6842F48072CA6001684A6942F05F
:1026400001024A610068C16841F02001C1600020B8
:1026500070470120704702207047000070B5144990
:1026600000680968884222D1012212491048FFF708
:10267000CBFF104C00252069012812D120783E287C
:1026800008D10420C4E90305657000F003FF206948
:10269000012806D1064A6078C83221781154401CBE
:1026A000607020783C2802D101202061657070BDE7
:1026B0008C0500202C0000202DE9F843044690F8FA
:1026C00039001F4616460D4620284CD1C5B1BEB173
:1026D00094F83800012846D0012084F838004FF0E3
:1026E0000008C4F83C80212084F83900FEF750FA35
:1026F000A6848146E684A068B0F5805F03D004E03C
:102700000120BDE8F883206928B12E465FF000055E
:1027100084F838800EE00026FAE78021204601F098
:102720007BF9A0B9AEB116F8010B21684860E08CC6
:10273000401EE084E08C4B464FF0000200970028DA
:10274000EBD14FF04001204601F066F930B1032093
:10275000D7E735F8020BC0F30800E6E7202084F83D
:1027600039000020CDE70220CBE77047FEE7016883
:102770004A69D24352050FD46FF480624A61002146
:1027800040F8301F202242738173026942F0040234
:102790000261017301207047002070472DE9F84F56
:1027A0000446C06A1E4693460D4621680A6842F4F4
:1027B00080620A60082807D0012805D010F5803F04
:1027C00002D0206B112804D12068016841F4807187
:1027D00001604FF001195B460022494620460096F1
:1027E00000F044F94FF4007840B120680068C0055B
:1027F00001D5C4F840800320BDE8F88F2069DFF8D8
:1028000084A0B0F5804F0FD00620216800EAD517CC
:1028100047F0F000086133465A460AF106012046A7
:1028200000F058F958BB03E0E8B240F001001CE0AA
:102830002168E8B2086133465A465146204600F006
:1028400049F9E0B92068416981690091016841F462
:10285000807101605B46002249462046009600F0E8
:1028600005F90028C1D147F0F1002168086133461D
:102870005A465146204600F02DF90028BCD00120D0
:10288000BAE7000002000100F8B50446C06A1E461F
:102890000D461746082807D0012805D010F5803FBF
:1028A00002D0206B122804D12068016841F48071A5
:1028B0000160134600224FF001112046009600F0FF
:1028C000D5F840B120680068C00502D54FF400700B
:1028D00020640320F8BD2069B0F5804F0ED006209B
:1028E000216800EAD51040F0F000086133463A460E
:1028F0000B49204600F0EEF878B902E005F0FE0042
:1029000000E0E8B221680861054933463A46891F6C
:10291000204600F0DFF80028DCD00120F8BD0000E0
:10292000080001002DE9F84F0446006889460B9D18
:1029300001689846174641F480610160206801688B
:1029400041F48071016000954FF0011B002259464F
:1029500020460A9B00F08AF84FF4007A40B12068C4
:102960000068C00501D5C4F840A00320BDE8F88F79
:10297000216809F0FE0008612B46284920460A9A82
:1029800000F0A8F8F0BB20684169806900902A46F1
:1029900020460A9900F01CF940B1206C04283AD175
:1029A0002068016841F40071016034E0FEB2B8F1C2
:1029B000010F09D02168380A08612A4620460A9981
:1029C00000F006F90028E8D1206806612A46204672
:1029D0000A9900F0FDF80028DFD12068016841F471
:1029E0008071016000950022594620460A9B00F044
:1029F0003DF80028B3D1216809F0FF0040F0010044
:102A0000086100E007E02B46044920460A9A00F0DE
:102A100061F80028AAD00120A8E700000200010008
:102A200070B516460D4604460DE02046FFF79FFEA2
:102A300008B1012070BD681C05D0FEF7A9F8801B05
:102A4000A84207D835B120684069C0434007ECD49C
:102A5000002070BD002044F8300F20216173A07366
:102A6000216941F0200121612073E2E72DE9F0475F
:102A70001E4690460D460446C1F30747DDF82090F8
:102A800008E0701C06D0FEF783F8A0EB0900B04206
:102A90000FD876B12068012F18D0806925EA000090
:102AA0000004000C14D000214145EAD00020BDE80C
:102AB000F087002044F8300F20216173A073216952
:102AC00041F02001216120730120F0E74069E5E732
:102AD0000121E9E72DE9F0479A4691460E46044662
:102AE00000254FF02008C1F3074725E02068406922
:102AF000C043400514D42068016841F400710160AE
:102B000021686FF480604861256384F83D8084F813
:102B10003E50206C40F00400206484F83C501FE0DC
:102B2000B9F1FF3F08D0FEF733F8A0EB0A014945A1
:102B30000CD8B9F1000F09D02068012F13D080699B
:102B400026EA00000004000C0BD0CFE744F8305F09
:102B500084F80D80A573206940F020002061257362
:102B60000120BDE8F0874069EAE72DE9F041002542
:102B700090460E460446202717E04069C043C00631
:102B80000CD454F8301B6FF01000486144F8105911
:102B90006777A577206A2062257717E0FDF7F8FFB1
:102BA000A0EB0800B04208D83EB120684169C94393
:102BB0004906E2D40020BDE8F08144F8305F677335
:102BC000A573206940F02000206125730120F2E701
:102BD00070B516460D4604460DE02046FFF7C7FDCA
:102BE00008B1012070BD681C05D0FDF7D1FF801B26
:102BF000A84207D835B120684069C0430006ECD42C
:102C0000002070BD002044F8300F20216173A073B4
:102C1000216941F0200121612073E2E710B5002114
:102C2000022000F0A3F80021042000F09FF800210A
:102C3000BDE81040032000F099B8C007000E01F075
:102C4000010140EA811002F0010140EA411003F065
:102C5000010140EA0111012000F088B8044A10B5D2
:102C6000C2E9020100F072F8BDE81040FFF7D6BFDC
:102C7000100000203EB50B4D4FF0FF348DF80400DE
:102C80000094012301AAAE21A868FEF723FA00945C
:102C9000012302AAAE21A868FEF7FAF89DF8080001
:102CA0003EBD000010000020044AD070917041EA3F
:102CB0000010C1B2092000F059B800001000002037
:102CC00010B504460720FFF7D5FF64F30100014665
:102CD000BDE81040072000F049B8000070B5134D62
:102CE000044628700620FFF7C5FF64F30200032C9A
:102CF0000ED020F00801062000F038F828780328CC
:102D000009D04FF0000302281A4619460BD005E0FF
:102D100040F00801EFE700231A4601210020BDE83A
:102D20007040FFF78ABF0120F9E700001000002083
:102D300010B504460720FFF79DFF64F384000146A9
:102D4000BDE81040072000F011B80000064910B59A
:102D5000002008700146FFF7A7FF0021BDE81040E2
:102D6000012000F003B80000100000201CB5022371
:102D70008DF804004FF0FF30009004488DF80510E6
:102D800001AAAE218068FEF7A5F91CBD1000002045
:102D900010B5142000F0BCF8800705D10321BDE870
:102DA0001040142000F0D6B810BD7CB504460025B4
:102DB00029460D2000F064F99320207020206070D7
:102DC00001A823460090022219460C2000F0CEF8FC
:102DD000010009D1225C401C5540C0B20428F9D33F
:102DE000205CA84200D0022108467CBD2DE9F041BC
:102DF0000E46074615460421052000F036F88021CE
:102E00000A2000F0A7F8002405E0395D092000F051
:102E100037F9641CE4B2B442F7D30321012000F077
:102E20002FF9FF24052000F073F8641E14F0FF044E
:102E300001D04007F6D5222000F06AF82870212042
:102E400000F066F86870BDE8F08170B5054601468F
:102E5000262000F064F8040003D12846FFF7A5FF00
:102E6000044600F01CF8204670BD70B50C460546BF
:102E700000F04EF820EA04012846BDE8704000F05A
:102E8000FFB810B50022835C8C5CA34201D0022005
:102E900010BD521CD2B2052AF5D3002010BD0EB5CC
:102EA00050208DF8040000208DF805000DF1060279
:102EB000022101A8FFF79AFF02A801AB00900422AB
:102EC00019460C2000F052F80EBD10B500F03EF887
:102ED0008D212A2000F0D4F83E212B2000F0D0F8DC
:102EE0001E212D2000F0CCF800212C2000F0C8F885
:102EF0007021262000F0C4F84021152000F0C0F811
:102F00003D21112000F0BCF8BDE81040FFF740BFA4
:102F10007E2101EA400040F0800000F01FBA7CB53D
:102F20000C46054607210D2000F0AAF8257001A8DF
:102F300023460090012219460C2000F017F818B91A
:102F4000BDF80410102900D002207CBD0F21012003
:102F500000F096B870B50C460546FFF7D9FF40EA79
:102F600004012846BDE8704000F08AB82DE9FF5FF3
:102F700000270226DDF838A015468B468146B84664
:102F80000C2805D0B9F10E0F05D11227102001E051
:102F900077273020804647F08001022000F070F84B
:102FA00080210420FFF761FF80210A20FFF7D2FF74
:102FB0000021012000F064F8002406E01BF8041052
:102FC000092000F05DF8641CA4B2AC42F6D3494677
:102FD000012000F055F8B9F10C0F03D180210D202C
:102FE000FFF7B8FF4FF4FA650420FFF791FF6D1E5D
:102FF0002D0404462D0C04D0E00702D114EA080F7A
:10300000F2D080210D20FFF730FF35B10620FFF709
:103010007FFF10F01B0F04D0022604B03046BDE83D
:10302000F09F00263C40E00700D00126B9F10C0FCC
:10303000F3D10A20FFF76CFF04460C20FFF768FF6E
:1030400010F007004FEAC40104D008390844AAF878
:10305000000001E0AAF8001024B1102C04D91024BB
:10306000002503E00124FBE7002506E00920FFF727
:103070004FFF039948556D1CADB2A542F6D3CCE77E
:103080007E2202EA400000F081B90000F0B505465A
:1030900087B017460E466422032103A88DE8070077
:1030A0006C000123324621461548FEF7A9F88DF839
:1030B000104001208DF8116000EB45008DF81200E2
:1030C0009DF80C008DF813009DF80D008DF814008C
:1030D000052104A8FDF7E2FB9DF80E10BDF80C4099
:1030E000814200D00024012F07D1CDE900102346F2
:1030F00032462946012000F01FF807B02046F0BDF7
:103100008C04002010B50022FFF7C0FFFDF7DBF9AB
:10311000064A074BFDF765F94FF06632054BFDF7A0
:103120005AF9BDE81040FDF7EEB900007B14AE4738
:10313000E17A943F661271407FB50D4CDDE9086578
:10314000246858B1012808D103958DE84C000B463E
:10315000084A0421204600F0A9FC7FBD8DE82C0020
:103160000B4605A20421204600F0A0FC7FBD000014
:1031700024000020B458000857204465763A2030D7
:1031800078253032582C205265673A203078253027
:1031900032582C20446174613A20307825303458FC
:1031A0002C20435243385F63616C633A307825309A
:1031B00032580D0A000000002DE9F04385B00024CC
:1031C00035480094019402940394816941F0100100
:1031D0008161816901F010010491816941F0200150
:1031E0008161816901F020010491816941F004014C
:1031F0008161816901F004010491816941F0080154
:1032000081618069254F00F008000490012210219F
:103210003846FDF7B8FCDFF888904FF400460022EE
:1032200031464846FDF7AFFCB01001258DE831006E
:10323000DFF8708069464046FDF7B0FBA8038DE8D3
:10324000310069464046FDF7A9FB17480095CDE9D6
:10325000010469463846FDF7A1FB1020CDE90005C1
:103260000320CDE9024069463846FDF797FB02206E
:10327000CDE90240CDE9006569464846FDF78EFB81
:10328000002211460620FEF795F90620FEF784F984
:1032900005B0BDE8F08300000010024000080140C6
:1032A000000C014000100140000021100B480A49A9
:1032B0004FF4007201604FF482714160002181601F
:1032C000C1600161C0E90512C161016241628162B0
:1032D0000A21C162FEF71CBC003001403405002009
:1032E00010B586B00024124800940194029403940F
:1032F00004940E49059401604FF4FA51C0E9011499
:103300006321C0E903148461FEF7D0FD4FF48050BF
:10331000009069460648FEF741FE049404A904485B
:103320000594FEF78FFD06B010BD000000040040BC
:103330000C060020FEE77047704700000EB5012321
:103340008DF804000A20009002AA01A90248FEF7A5
:1033500071FC9DF808000EBD3405002070B50A4DC3
:103360000446002210212846FDF70DFC2046FFF7F9
:10337000E5FF0020FFF7E2FF044601221021284666
:10338000FDF701FC204670BD0008014070B50A4CF5
:103390000E460546002210212046FDF7F4FB284684
:1033A000FFF7CCFF3046FFF7C9FF2046BDE870406D
:1033B00001221021FDF7E7BB0008014038B50B469C
:1033C000009204460022802100F008F8002804D072
:1033D000606D40F020006065032038BD2DE9F843A2
:1033E0001E46914688460446089DFDF7D1FB401BCA
:1033F000351AFDF7CDFB074625480068C0F3CB30F2
:10340000684338E0701C37D0FDF7C2FBC01BA842F0
:1034100003D215B1009860B32CE02068416821F018
:10342000E00141606068B0F5827F0BD1A068B0F523
:10343000004F02D0B0F5806F04D12068016821F000
:1034400040010160A06AB0F5005F09D12068016801
:1034500021F4005101602068016841F400510160CD
:10346000012084F85100002084F850000320BDE8BA
:10347000F8830025401E00902068816838EA01002A
:1034800004D000214945BDD10020F0E70121F9E732
:103490006400002010B5002000F026F8BDE81040C0
:1034A00000F044B970B5842815D2402913D20C4BD2
:1034B000012401F00705AC401E79C908094B01EB56
:1034C000411100EB81000EB132B101E0012A03D0BD
:1034D000195CA143195470BD195C2143FAE700003F
:1034E000080000206C00002028B1FF224FF4846106
:1034F0000248FCF727BE0022F8E700006C0000201D
:10350000024A401C491C108051807047080000206E
:1035100010B501F063FA44F62063012278214F4888
:10352000FDF700FC08B1002010BD40F6C210401E9F
:10353000FDD1AE220021782001F056FAD5220021DB
:10354000782001F051FA80220021782001F04CFA15
:10355000A8220021782001F047FA3F22002178209C
:1035600001F042FAD3220021782001F03DFA002236
:103570001146782001F038FA40220021782001F02D
:1035800033FA8D220021782001F02EFA102200213A
:10359000782001F029FA20220021782001F024FA75
:1035A00000221146782001F01FFAA1220021782084
:1035B00001F01AFAC8220021782001F015FADA2267
:1035C0000021782001F010FA12220021782001F069
:1035D0000BFA81220021782001F006FA9F220021B7
:1035E000782001F001FACF220021782001F0FCF9C7
:1035F000D9220021782001F0F7F922220021782039
:1036000001F0F2F9DB220021782001F0EDF9A0228F
:103610000021782001F0E8F9A4220021782001F0AF
:10362000E3F9A6220021782001F0DEF9AF22002183
:10363000782001F0D9F92E220021782001F0D4F968
:103640000020FFF751FF00F071F8054800210180CC
:10365000418001214171084610BD0000E0040020B6
:10366000080000202DE9F047814625480D46924686
:1036700001882A781144842905D2804640886978D7
:103680000844402802D30020BDE8F08700262AE045
:10369000A9F1200101FB00606A68002432F8107073
:1036A0001DE000BF07FA04F0000409D5B8F80210C5
:1036B000B8F800003144204489B280B252460BE091
:1036C000BAF1000F1AD00022B8F80210B8F80000C2
:1036D0003144204489B280B2FFF7E4FE641C2878AC
:1036E000A042DFD8761C6878B042D1D8B8F8001074
:1036F0002A7848461144A8F80010C5E70122E3E7FC
:103700000800002070B515460E46044609E02A461A
:103710003146FFF7A7FF2178884201D0C8B270BDBB
:10372000641C20780028F2D1C0B270BD70B5114D74
:10373000002400BF04F1B000C2B20021782001F0E3
:1037400053F900221146782001F04EF91022002191
:10375000782001F049F904EB441005EB8002842342
:103760004021782001F050F9641CE4B2082CE1D328
:1037700070BD00006C0000207047FDF7B5BE10B5AD
:1037800090B028216846FCF7E4FC14210AA8FCF755
:10379000E0FC0220009001200490102000240590FD
:1037A00007946846FEF724F80F20CDE90A040C942C
:1037B0000D9400210AA80E94FDF72EFF10B010BD45
:1037C000704700000148FEF755BC00000C060020C1
:1037D000F0B50268164B174C174D4FF080479842D2
:1037E00005D0B84203D0A04201D0A84203D122F0B4
:1037F00070064A683243984205D0B84203D0A042CE
:1038000001D0A84203D122F44074CA6822434C6913
:1038100022F08002224302608A68C2620A688262E1
:10382000984201D10969016301214161F0BD0000A5
:10383000002C0140000400400008004010B58468DE
:1038400042EA032224F47F440A432243826010BDEB
:10385000826822F070020A4342F0070181607047DB
:1038600010B5036A046A24F001040462846924F038
:10387000F00444EA021423F00A020A43846102625B
:1038800010BD10B5036A23F0100303628369046A54
:1038900023F4704343EA023224F0A00343EA011107
:1038A0008261016210BD10B5406A0021C185C184EA
:1038B000FEF763FD10BD0168CA6822F49072CA6009
:1038C00001684A6922F001024A61202180F83A1019
:1038D000704710B590F83A10222901D0022010BD8F
:1038E00082684FF480539A4201D1016921B1816A03
:1038F0009A421BD04AB10AE00268816A5268C2F358
:1039000008020A80816A891C08E0026972B10268B3
:10391000526802F07F020A70816A491C8162C18D7F
:10392000491E0904090CC18503D016E002685268DB
:10393000F1E70168CA6822F02002CA600168CA681B
:1039400022F48072CA6001684A6922F001024A6169
:10395000202180F83A10FEF781FE002010BD000003
:1039600070B5044600680169E26821F440511143D2
:1039700001612169A0680843616908432168CA6838
:1039800041F20C639A430243CA6020684169A2690C
:1039900021F44071114341611E492068884202D1DF
:1039A000FDF7E0FE01E0FDF7CDFE00EBC00101EB0D
:1039B0000012606864218000B2FBF0F3B3FBF1F306
:1039C0006FF018067343B2FBF0F5B2FBF0F605EBAF
:1039D0008305322303EB0515B5FBF1F5B6FBF1F6D4
:1039E00005F0F00505EB0615B2FBF0F6B2FBF0F0C2
:1039F000B0FBF1F06FF01802504306EB800003EBD0
:103A00000010B0FBF1F0216800F00F00284488603E
:103A100070BD0000003801402DE9F041984617467E
:103A20000E460446069D1DE0681C1BD02DB1FDF717
:103A3000AFF8A0EB0800A84214D92068C16821F4AF
:103A4000D071C1602068416921F0010141612020ED
:103A500084F8390084F83A00002084F83800032004
:103A6000BDE8F0812068006836EA000004D000203C
:103A7000B842D9D00020F3E70120F9E70148FEF76A
:103A80007DBC00008C050020FEE700000FB4054B54
:103A900010B503A9044A029800F016F910BC5DF8AD
:103AA00014FB000019440008680000200FB41CB586
:103AB0000246002007AC00290BD0491ECDE90021A9
:103AC000054B6A462146069800F0FEF8009A002150
:103AD00011701CBC5DF814FBF74300080FB4084BD1
:103AE00010B504A902AA039800F0EEF8044602A952
:103AF000002000F08BFC204610BC5DF814FB000099
:103B00000D4400080907090E002804DB00F1E0203D
:103B100080F80014704700F00F0000F1E02080F8FA
:103B2000141D704702E008C8121F08C1002AFAD10C
:103B300070477047002001E001C1121F002AFBD12D
:103B4000704700002DE9FF5F82B00021DDE90430FD
:103B5000020DDDF840B0034318D044F61050A2F235
:103B6000FF3242431514119801281FD0A5EB0B001A
:103B7000401C5FEA000A4FF000064E4FDFF8389114
:103B8000B046504615D5CAF1000413E0119801243F
:103B90004AA3012801D16FEA0B010298119AC0E9EA
:103BA0000031C0E9024206B0BDE8F09FCBF1000051
:103BB000DFE704460021404A491842EB0450CDE9B2
:103BC000001012E0E00707D032463B464046494627
:103BD000FCF707FC8046894632463B4610461946AC
:103BE000FCF7FFFB06460F466410002CEAD1DDE926
:103BF0000401DDE90023BAF1000F06DAFCF7F1FB5E
:103C000042464B46FCF7EDFB05E0FCF794FD4246CF
:103C10004B46FCF790FD04460E460022284BFCF76D
:103C200011FE03D84FF0FF30014607E00022254B7C
:103C300020463146FCF72EFBFCF7ECFD102409E092
:103C4000002C0ADB0A220023FCF78FFC039B303296
:103C50001A55641E50EA0102F2D1641C039AC4F1A1
:103C600011031444119A012A03D0012208430DD1F3
:103C70000AE0084304D000204FF0110B119072E7C6
:103C8000A3EB0B056D1E0DE05B4504DD4FF000025C
:103C900005F1010504E003DA4FF00002A5F101058A
:103CA000002AECD002981199C0E90231C0E9004520
:103CB00079E70000000014400000F03F30000000F1
:103CC0000000F0430000E03F2DE9FF4F95B09B4618
:103CD0008946064600250FE2252877D1002427468D
:103CE000F84A0121059400E0044316F8013F203B07
:103CF00001FA03F01042F7D130782A2811D06FF082
:103D00002F033078A0F13002092A16D8059A44F022
:103D1000020402EB820203EB42021044761C05907F
:103D2000EFE759F8042B0592002A03DA504244F4D5
:103D30000054059044F00204761C30782E2816D1E9
:103D400016F8010F44F004042A280DD06FF02F025A
:103D50003078A0F13003092B09D807EB870302EB79
:103D60004303C718761CF3E759F8047B761C3078B8
:103D70006C280FD006DC4C2817D068280DD06A2894
:103D800014D104E0742810D07A280FD10DE044F447
:103D900000140AE044F4801401E044F44014727802
:103DA000824202D104F58014761C761C3078662895
:103DB0000BD013DC582877D009DC002875D04528B3
:103DC000F6D04628F4D047281AD19DE118E06328A0
:103DD00035D0642879D0652812D195E1702873D048
:103DE00008DC6728F1D069286FD06E280DD06F28C5
:103DF00006D1B5E073282CD0752875D0782874D0FA
:103E00005A46179990476D1C75E1C4F30250022879
:103E100009D003280DD0D9F8001004280DD00D606A
:103E200009F1040967E1D9F80010EA17C1E9005265
:103E3000F6E7D9F800100D80F2E70D70F0E719F8F9
:103E4000041B8DF8001000208DF80100EA460120C7
:103E500003E059F804AB4FF0FF3061074FF0000169
:103E600002D40DE008F101018846B9420FDA80451D
:103E7000F8DB1AF808100029F4D108E008F1010174
:103E800088468142FADB1AF808100029F6D1059815
:103E90005B46A0EB080721463846179A00F094FAD3
:103EA000284400EB080507E04DE029E10DE01AF891
:103EB000010B5A4617999047B8F10108F7D25B46B3
:103EC00021463846179A13E142E00A220092C4F3D1
:103ED00002524FF0000A022A08D059F804CB032AF4
:103EE0004FEAEC710AD00DE029E02AE009F1070160
:103EF00021F00702F2E802C1914609E00FFA8CFCBA
:103F00004FEAEC71042A03D14FFA8CFC4FEAEC71B2
:103F1000002907DA0A460021DCF1000C61EB0201FE
:103F20002D2202E0220504D52B228DF80420012247
:103F300003E0E20701D02022F7E7904659E00A218A
:103F400002E010220DE010214FF0000A00910BE07A
:103F500010224FF0000A44F004040827009203E006
:103F600008224FF0000A0092C4F30252022A05D040
:103F700059F804CB0021032A08D009E009F1070110
:103F800021F00702F2E802C1914605E01FFA8CFC1D
:103F9000042A01D10CF0FF0C4FF00008220728D5AD
:103FA000702806D0009B83F0100353EA0A0305D063
:103FB0000EE040228DF80420012208E05CEA0102B4
:103FC00006D030228DF804208DF80500022290469C
:103FD000009B83F0080353EA0A030AD15CEA01025A
:103FE00001D1620705D530228DF804204FF0010879
:103FF0007F1E582804D034A003900EA802900DE034
:1040000036A0F9E753466046009AFCF7AEFA8446BC
:104010000398825C0298401E029002705CEA0100E4
:10402000F0D1029806A9081A00F1200A600702D50B
:1040300024F4803400E00127574502DDA7EB0A0095
:1040400000E0002000EB0A01009005984144401A6E
:104050000590E00306D45B462146179A059800F0C8
:10406000B3F90544002706E001A85A46C05D179938
:1040700090476D1C7F1C4745F6DBE0030CD55B4683
:104080002146179A059800F09FF9054404E0302076
:104090005A46179990476D1C0099481E00900029B8
:1040A000F5DC08E0029802995A460078491C029112
:1040B000179990476D1CBAF10001AAF1010AF1DCD1
:1040C00065E10000092801003031323334353637DC
:1040D0003839616263646566000000003031323354
:1040E00034353637383941424344454600000000F4
:1040F00000F058F90544761C307800287FF4ECADC8
:1041000019B02846BDE8F08F620700D4062709F1F0
:10411000070222F0070CFCE80223E14603F0004806
:104120005FEA080C02D00FF2702C0DE05FEA045C2D
:1041300002D50FF2682C07E05FEAC47C02D00FF2D0
:10414000602C01E0AFF2700C4FF0FF3823F0004319
:10415000CDF850C065280CD006DC452809D046288B
:104160001DD047283DD13DE0662818D067287ED174
:1041700038E00021112F01DB112000E0781CCDE98F
:10418000000106A90EA8FFF7DDFCDDE90F010E9A7C
:1041900003910021009207F1010A04914DE04FF0D4
:1041A00000400097CDE9011006A90EA8FFF7CAFC50
:1041B000DDE90F0203920E9B11990022DDF80CA09D
:1041C0000093049211B9791C00EB010AB7EB0A00C5
:1041D00004D4C0F1FF3007F1010A0490AAEB0700F4
:1041E000019044E0012F00DA01270021112F01DDA9
:1041F000112000E03846CDE9000106A90EA8FFF71E
:10420000A1FCDDE90F010E9A0391002104910092B7
:10421000BA4621070CD40399514500DA8A46BAF10F
:10422000010F05DD009AAAF10101515C302908D087
:10423000B84202DA10F1040F06DA0121CDE90110CB
:1042400015E0AAF10101E9E7002805DC0499014421
:104250000491AAEB000102E0411C514500DD8A46B1
:104260000499401A401C01904FF000400290200732
:1042700004D40198504501DBCDF8048000208DF86E
:104280004F0002980DF14F07B0F1004F25D02B20C1
:104290000E9002984FF0020800280CDA404202907B
:1042A0002D200E9007E00A210298FCF748F93031E2
:1042B000029007F8011DB8F10001A8F10108F2DC35
:1042C00002980028EFD1791E0E980870307800F01F
:1042D000200040F0450007F8020D12A8C01B00F1B5
:1042E00007081498007800B1012000EB0A0101983A
:1042F00001EBE07105984144401A401E0590E0032F
:1043000006D45B462146179A059800F05DF80544EF
:104310001498007818B15A46179990476D1CE0031D
:1043200024D55B462146179A059800F04DF80544C0
:104330001CE00498002807DBDDE90301884203DD67
:104340000098405C179901E0179930205A46904731
:10435000049805F10105401C04900198401E01904D
:1043600004D12E205A46179990476D1CBAF10001CE
:10437000AAF1010ADDDC05E017F8010B5A4617998E
:1043800090476D1CB8F10001A8F10108F4DC5B4610
:104390002146179A0598ABE62D0000002B0000007F
:1043A000200000002DE9F041044600251E46174676
:1043B000880404D405E039462020B0476D1C641EF3
:1043C000F9D52846BDE8F0812DE9F04104460025E5
:1043D0001E469046C80301D5302700E020278804F8
:1043E00004D505E041463846B0476D1C641EF9D53A
:1043F0002846BDE8F0814A68002A06D00A68531CA6
:104400000B6010704868401E486070470A68531C73
:104410000B6010707047000013B5642301226946D9
:104420000248FEF749F900981CBD0000CC050020A9
:104430000EB5FDF761F8FFF7A2F9FEF7BDFEFF48E4
:10444000FD4900260160FE49C0E901164FF4804491
:10445000C0E9036446618661C6610662FCF79EFBA3
:10446000F648F84954300160F749C0E90116C0E93F
:10447000036446618661C6610662FCF78FFBFEF746
:1044800015FFF348F1490C2401604FF4E131C0E914
:104490000116C660C0E904648661C661FEF71CF8B7
:1044A000EB48EC49403001604FF41651C0E9011669
:1044B000C660C0E904648661C661FEF70DF8FEF7C8
:1044C0000FFFE3488030FDF73DFD0122E249E0485F
:1044D000FEF79AF8DE49D9484031FEF7BFFB0120CC
:1044E000FEF726FC0320FEF7EBFB0F210846FEF744
:1044F000DBFB0220FEF7F2FBFEF7E7FCFFF708F814
:1045000001210020FEF7FCFF0122D449D4A0FFF7CF
:10451000F9F814210020FEF7F3FF0122CF49D2A0C1
:10452000FFF7F0F8FFF702F94FF4FA60FCF716FA1C
:10453000FEF7B0FFC84D4FF0F80905F125044FF420
:104540007A7A4FF00108671FE878B8B10128FBD1EB
:1045500000210846FEF7D4FF0122C049C4A0FFF79E
:10456000D1F810210020FEF7CBFF0122BB49C3A0E8
:10457000FFF7C8F8287900287ED04DE1E86830B10F
:10458000012828D0022848D0042876D000E1002154
:104590000846FEF7B5FF0122B049B5A0FFF7B2F813
:1045A00010210020FEF7ACFFA9480122AB49D13011
:1045B000FFF7A8F8FFF7BAF821210020FEF7A0FFC7
:1045C0000122A649B0A0FFF79DF8FFF7AFF80A2037
:1045D000FCF7C4F9DCE0A0782279E1788DE80700E7
:1045E0009B4863782278ABA1D130FFF777FA00219E
:1045F0000846FEF785FF964801229849D130FFF71B
:1046000081F80F210020FEF77BFF01229349A7A02C
:10461000FFF778F8FFF78AF8BAE0A0782279E17816
:104620008DE807008A48637822789AA1D130FFF795
:1046300055FA00210846FEF763FF854801228749A5
:10464000D130FFF75FF80F210020FEF759FFE8692E
:10465000FBF746FF02467E480B4697A1D130CDF8C6
:104660000090FFF73BFA7A4801227C49D130FFF7EE
:1046700049F82321142001E0C3E01CE0FEF740FFCD
:104680000122764990A0FFF73DF823213C20FEF758
:1046900037FF012271498EA0FFF734F8FFF746F883
:1046A00061206D49A87153460122891D6848FEF7B3
:1046B00003F803206BE0A0782279E1788DE8070009
:1046C00063486378227873A1D130FFF707FA00219D
:1046D0000846FEF715FF5E4801226049D130FFF71A
:1046E00011F810210020FEF70BFFE869FBF7F8FE38
:1046F000024657480B4670A1D130CDF80090FFF725
:10470000EDF9534801225549D130FEF7FBFF232133
:104710001420FEF7F5FE4E4801225049C830FEF73E
:10472000F1FF01224D496CA0FEF7ECFF2179E07802
:10473000CDE90001A3786278217868A0FFF7A6F997
:10474000E869FBF7CDFE024641480B4669A1D1302E
:10475000FFF7C4F93E495346D1310522A1F191003A
:10476000FDF7AAFF7C20A8713B4939485346012236
:10477000891D4030FDF7A0FF35495346C831062258
:10478000A1F18800FDF798FFFEF7D0FF0520E86053
:1047900031482030FEF759FB80B9E86870B93878A5
:1047A000207078786070B878A070F878E070387908
:1047B0002071C5F80C80FEF76DFEAE6126482030F2
:1047C000FEF743FB00287FF4BFAEE86800283FF403
:1047D000BBAE21492531481FFEF753FB0028F6D018
:1047E0003878207078786070B878A070F878E070C9
:1047F00038792071FEF74EFEAE61C5F80C80EE618F
:10480000A2E621210020FEF77BFE012213491EA013
:10481000FEF778FFFEF78AFF0F482030FEF715FB02
:1048200040B9287930B93A7822707B786370B878CB
:10483000A07063E086E00000005400408C0400207B
:10484000A086010000580040801A06000038014090
:104850008C050020004400402C00002000000020B7
:1048600044414920484F4300475456543A290000D8
:104870002D3E444820475456543C2D00494E444553
:104880004E20434152440000515545542054484560
:10489000000000002530327825303278253032781B
:1048A00025303278253032780000000053454E53D1
:1048B0004F522054454D500054454D503A252E320C
:1048C000662563430000000048525F7C0000000042
:1048D00053504F3200000000250000003C253032CC
:1048E00078253032782530327825303278253032CC
:1048F000787C0000252E32667C000000F978E1709B
:1049000097F804C084F804C085F804808DE803108B
:10491000AFF280012848FFF7E1F821210020FEF7DF
:10492000EFFD012225492448FEF7ECFEFEF7FEFECE
:104930002179E078CDE90001A3786278217820A080
:10494000FFF7A4F82448FEF780FA00287FF458AF58
:1049500028790128FAD12049491D481FFEF791FA0C
:1049600000283FF44DAF3A7822707B786370B878B6
:10497000A070F978E17097F804C084F804C08DE85D
:104980000310AFF2F0010C48FFF7A8F82121002036
:10499000FEF7B6FD012209490748FEF7B3FEFEF710
:1049A000C5FE2179E078CDE90001A378627821780D
:1049B00003A0FFF76BF8C7E55D06002000000020AC
:1049C0002D25303278253032782530327825303236
:1049D00078253032780000004C0000200148401E4D
:1049E000FDD1704790D003001CB502238DF8041050
:1049F0000A2100918DF80520014601AA0148FCF723
:104A000069FB1CBDE004002070B5C2B000248DF825
:104A1000041001A904E0155D0E19641C7570E4B260
:104A20009C42F8D30A2100915B1C01469BB201AA6B
:104A30000248FCF74FFB42B070BD0000E0040020CC
:104A40000000000000000000000000000000000066
:104A50000000000000000000000000000000000056
:104A6000000000000000000C000C000C000C000C0A
:104A7000000C000C000C000C000C000C0000000CE2
:104A8000000C0000000000000000001B001B001BC9
:104A9000001B001B000000000000000000000000E0
:104AA000000000000000000000000000000080196D
:104AB000801980198019C07FC07F80190033C07FA2
:104AC000C07F0033003300330033000000000000DB
:104AD0000000001E003F807580650074003C001ED1
:104AE00000078005806580658075003F001E00041A
:104AF000000400000000007000D840D8C0D880D961
:104B000000730006000C801BC036C066C046C0069D
:104B100080030000000000000000001E003F003382
:104B200000330033001E000CC03CC066806380610F
:104B30008063C03E801C0000000000000000000CEC
:104B4000000C000C000C000C000000000000000035
:104B50000000000000000000000000000000000055
:104B6000800000010003000600060004000C000C99
:104B7000000C000C000C000C0004000600060003F2
:104B800000018000002000100018000C000C000440
:104B90000006000600060006000600060004000CE1
:104BA000000C0018001000200000000C002D003F39
:104BB000001E0033000000000000000000000000A4
:104BC00000000000000000000000000000000000E5
:104BD0000000000C000C000C000CC0FFC0FF000C1B
:104BE000000C000C000C00000000000000000000A1
:104BF00000000000000000000000000000000000B5
:104C000000000000000000000000000C000C000488
:104C10000004000800000000000000000000000088
:104C2000000000000000001E001E00000000000048
:104C30000000000000000000000000000000000074
:104C40000000000000000000000000000000000064
:104C50000000000C000C0000000000000000000339
:104C6000000300030006000600060006000C000C0E
:104C7000000C000C001800180018000000000000D4
:104C80000000001E003F0033806180618061806D04
:104C9000806D8061806180610033003F001E0000F4
:104CA0000000000000000006000E001E0036002676
:104CB00000060006000600060006000600060006C4
:104CC00000060000000000000000001E003F80738E
:104CD00080618061800100030006000C0018003034
:104CE0000060807F807F0000000000000000001C4A
:104CF000003E006300630003000E000E000380010D
:104D0000800180618073003F001E000000000000F1
:104D100000000006000E000E001E001E00160036E9
:104D200000360066807F807F0006000600060000D7
:104D3000000000000000007F007F00600060006055
:104D4000006E007F80638001800180618073003F7E
:104D5000001E0000000000000000001E003F803325
:104D600080610060006E007F80738061806180617F
:104D70008033003F001E0000000000000000807F24
:104D8000807F80010003000300060006000C000C79
:104D9000000C0008001800180018000000000000B7
:104DA0000000001E003F8063806180610021001EC2
:104DB000003F8061806180618061003F001E0000D3
:104DC000000000000000001E003F00738061806151
:104DD00080618073803F801D800180610073003F8F
:104DE000001E0000000000000000000000000000A5
:104DF0000000000C000C000000000000000000009B
:104E00000000000C000C000000000000000000008A
:104E10000000000000000000000C000C000000007A
:104E2000000000000000000C000C0004000400085A
:104E3000000000000000000080008003000E003829
:104E400000600038000E80038000000000000000B9
:104E50000000000000000000000000000000807F53
:104E6000807F00000000807F807F00000000000045
:104E70000000000000000000000000000000000032
:104E800000400070001C000780010007001C00703B
:104E90000040000000000000000000000000001FB3
:104EA000803FC071C060C000C00180030007000ED9
:104EB000000C000C0000000C000C000000000000C2
:104EC0000000001E003F803180718063806F806D24
:104ED000806D806F806700600032003E001C000023
:104EE000000000000000000E000E001B001B001B55
:104EF000001B80318031803F803F8031C060C060C6
:104F0000C0600000000000000000007C007E006324
:104F1000006300630063007E007E00638061806147
:104F20008063007F007E0000000000000000001E83
:104F3000003F8031806100600060006000600060C0
:104F4000006080618031003F001E00000000000012
:104F50000000007C007F006380638061806180616D
:104F600080618061806100630063007E007C0000DE
:104F7000000000000000807F807F00600060006013
:104F80000060007F007F0060006000600060807F44
:104F9000807F0000000000000000807F807F0060B4
:104FA000006000600060007F007F006000600060C3
:104FB0000060006000600000000000000000001EB3
:104FC000003F80318061006000600060806380632A
:104FD000806180618031803F001E00000000000081
:104FE0000000806180618061806180618061807F7C
:104FF000807F80618061806180618061806100006C
:10500000000000000000003F003F000C000C000CFE
:10501000000C000C000C000C000C000C000C003FFD
:10502000003F0000000000000000800180018001BE
:1050300080018001800180018001800180618061A8
:105040008073003F001E0000000000000000C060F0
:105050008061006300660066006C0078007C00667A
:105060000066006380618061C06000000000000095
:105070000000006000600060006000600060006090
:1050800000600060006000600060807F807F000042
:10509000000000000000C071C071C07BC07AC06A0F
:1050A000C06AC06EC064C060C060C060C060C060E4
:1050B000C0600000000000000000807180718079F5
:1050C00080798079806D806D806D80658067806774
:1050D0008067806380630000000000000000001E05
:1050E000003F003380618061806180618061806108
:1050F000806180610033003F001E0000000000005E
:105100000000007E007F8063806180618061806339
:10511000007F007E006000600060006000600000B2
:10512000000000000000001E003F0033806180612D
:105130008061806180618061806580670033803F2D
:10514000401E0000000000000000007E007F806321
:10515000806180618063007F007E00660063006381
:1051600080618061C0600000000000000000000E4F
:10517000001F8031803100300038001E000780039E
:10518000806180618031003F001E0000000000004F
:105190000000C0FFC0FF000C000C000C000C000C55
:1051A000000C000C000C000C000C000C000C0000AB
:1051B000000000000000806180618061806180618A
:1051C0008061806180618061806180618073003F67
:1051D000001E0000000000000000C060C060C06051
:1051E000803180318031001B001B001B001B000E32
:1051F000000E000E00040000000000000000C0C00F
:10520000C0C0C0C0C0C0C0C0C0CC804C804C805E9C
:105210008052805280738061806100000000000035
:105220000000C0C0806080610033003B001E000CA5
:10523000000C001E001F003B80718061C0C0000098
:10524000000000000000C0C08061806100330033B6
:10525000001E001E000C000C000C000C000C000CCA
:10526000000C0000000000000000803F803F800133
:10527000000300030006000C000C001800180030AA
:105280000060807F807F000000000000000F000FA2
:10529000000C000C000C000C000C000C000C000CAE
:1052A000000C000C000C000C000C000C000F000F98
:1052B0000000001800180018000C000C000C000C76
:1052C00000060006000600060003000300030000BD
:1052D00000000000001E001E00060006000600067A
:1052E000000600060006000600060006000600068E
:1052F00000060006001E001E0000000C000C001E30
:105300000012003300338061806100000000000063
:10531000000000000000000000000000000000008D
:10532000000000000000000000000000000000007D
:10533000000000000000000000000000E0FF00008E
:10534000000000380018000C000000000000000001
:10535000000000000000000000000000000000004D
:105360000000000000000000000000000000001F1E
:10537000803F80618001801F803F80618063807FEB
:10538000C038000000000000000000600060006005
:105390000060006E007F8073806180618061806149
:1053A0008073007F006E000000000000000000001D
:1053B000000000000000001E003F8073806100605C
:1053C000006080618073003F001E0000000000004C
:1053D00000008001800180018001801D803F80737A
:1053E00080618061806180618073803F801D0000EA
:1053F0000000000000000000000000000000001E8F
:10540000003F00738061807F807F00608071003F7B
:10541000001E0000000000000000C007C00F000CCC
:10542000000C807F807F000C000C000C000C000C36
:10543000000C000C000C0000000000000000000048
:1054400000000000801D803F80738061806180616A
:1054500080618073803F801D80018063007F003EFB
:1054600000000060006000600060006F807F80715D
:105470008061806180618061806180618061000005
:105480000000000000000006000600000000003ED2
:10549000003E0006000600060006000600060006A4
:1054A00000060000000000000006000600000000EA
:1054B000003E003E0006000600060006000600064C
:1054C0000006000600060046007E003C000000606A
:1054D000006000600060806100630066006C007C1A
:1054E0000076006300638061C0600000000000007F
:1054F0000000003E003E0006000600060006000612
:105500000006000600060006000600060006000071
:10551000000000000000000000000000000080DD2E
:10552000C0FFC0CEC0CCC0CCC0CCC0CCC0CCC0CCE6
:10553000C0CC0000000000000000000000000000DF
:105540000000006F807F8071806180618061806178
:1055500080618061806100000000000000000000A8
:10556000000000000000001E003F80738061806129
:10557000806180618073003F001E00000000000019
:105580000000000000000000006E007F807380615A
:105590008061806180618073007F006E00600060C8
:1055A000006000600000000000000000801D803FDF
:1055B000807380618061806180618073803F801D25
:1055C00080018001800180010000000000000000D7
:1055D00000000067803F00390030003000300030AC
:1055E000003000300030000000000000000000002B
:1055F000000000000000001E803F80610060007F0E
:10560000803F80018061007F001E000000000000DC
:1056100000000000000800180018007F007F00183C
:1056200000180018001800180018801F800F0000D4
:105630000000000000000000000000000000806189
:105640008061806180618061806180618063807F32
:10565000803D00000000000000000000000000008D
:105660000000C060803180318031001B001B001BB6
:10567000000E000E00060000000000000000000008
:1056800000000000000080DD80DD80DD0055005559
:105690000055007700770022002200000000000083
:1056A00000000000000000000000806100330033B3
:1056B000001E000C000C001E00330033806100004F
:1056C0000000000000000000000000008061806118
:1056D000803100330033001B001B001B000E000E46
:1056E000000E001C007C00700000000000000000A4
:1056F0000000C07FC07F800100030006000C00187E
:105700000030C07FC07F00000000000080038007E1
:1057100000060006000600060006000E001C001C25
:10572000000E000600060006000600068007800343
:105730000006000600060006000600060006000639
:105740000006000600060006000600060006000629
:10575000000600060038003C000C000C000C000C99
:10576000000C000E00070007000E000C000C000CDF
:10577000000C000C003C003800000000000000009D
:105780000000000000008038807F0047000000001B
:1057900000000000000000000000000000070E09EB
:1057A0001C1B1215383F363124232A2D70777E7941
:1057B0006C6B6265484F464154535A5DE0E7EEE931
:1057C000FCFBF2F5D8DFD6D1C4C3CACD90979E9921
:1057D0008C8B8285A8AFA6A1B4B3BABDC7C0C9CE11
:1057E000DBDCD5D2FFF8F1F6E3E4EDEAB7B0B9BE01
:1057F000ABACA5A28F88818693949D9A2720292EF1
:105800003B3C35321F18111603040D0A5750595EE0
:105810004B4C45426F68616673747D7A898E8780D0
:1058200095929B9CB1B6BFB8ADAAA3A4F9FEF7F0C0
:10583000E5E2EBECC1C6CFC8DDDAD3D4696E6760B0
:1058400075727B7C51565F584D4A4344191E1710A0
:1058500005020B0C21262F283D3A33344E49404790
:1058600052555C5B7671787F6A6D64633E39303780
:1058700022252C2B0601080F1A1D1413AEA9A0A770
:10588000B2B5BCBB9691989F8A8D8483DED9D0D760
:10589000C2C5CCCBE6E1E8EFFAFDF4F3000000006E
:1058A00000000000010203040607080900000000D0
:1058B0000102030452204465763A203078253032C4
:1058C000582C205265673A203078253032582C20E9
:1058D000446174613A203078253034582C2043528A
:1058E00043385F696E3A3078253032582C20435265
:1058F00043385F63616C633A3078253032580D0A63
:105900000000000024590008000000206C00000086
:10591000243B0008905900086C0000200C0A00008D
:10592000343B00080B120000404A00080000000051
:105930000000000000000000000000000000000067
:1059400000000000000000000059000800000000F6
:105950000000000000000000000000000000000047
:105960000000000000000000000000000000000037
:105970000000000000000000000000000100000026
:1059800010000000000000000024F40000000000EF
:04000005080000ED02
:00000001FF
